:020000040800F2
:100000006006002099010008A1010008A301000872
:10001000A5010008A7010008A901000800000000D0
:10002000000000000000000000000000AB0100081C
:10003000AD01000800000000AF010008B101000898
:10004000B3010008B3010008B3010008B3010008C0
:10005000B3010008B3010008B3010008B3010008B0
:10006000B3010008B3010008B3010008B3010008A0
:10007000B3010008B3010008B3010008B301000890
:10008000B3010008B3010008B3010008B301000880
:10009000B3010008B3010008B3010008B301000870
:1000A000B3010008B3010008B3010008B301000860
:1000B000B3010008B3010008B3010008B301000850
:1000C000B3010008B3010008B3010008B301000840
:1000D000B3010008B3010008B3010008B301000830
:1000E000B3010008B3010008B301000800F002F8F2
:1000F00000F042F814A696E8000CB244B344DA4586
:1001000001D100F039F8BAE80F000FA696E83000E8
:10011000A5EB040504EB0607AAEB0704A7F101070A
:100120004FEA15154FEA3414A4F10104AC4201D38F
:1001300000F022F813F0010F18BFFB1A43F001037F
:1001400000F001F8DBE71847B8100000C810000005
:10015000704700000023002400250026103A28BF25
:1001600078C1FBD8520728BF30C148BF0B60704729
:100170001FB51FBD10B510BD00F031F81146FFF7D7
:10018000F7FF00F01DFE00F04FF803B4FFF7F2FF99
:1001900003BC00F057F800000948804709480047B1
:1001A000FEE7FEE7FEE7FEE7FEE7FEE7FEE7FEE727
:1001B000FEE7FEE704480549054A064B7047000084
:1001C000B50C0008ED00000860000020600600206B
:1001D000600200206002002070477047704775463B
:1001E00000F02CF8AE4605006946534620F00700A3
:1001F000854618B020B5FFF7DDFFBDE820404FF081
:1002000000064FF000074FF000084FF0000BAC461F
:10021000ACE8C009ACE8C009ACE8C009ACE8C0096A
:1002200021F007018D46704710B50446AFF30080FA
:100230002046BDE81040FFF7A8BF00000048704707
:100240000000002001491820ABBEFEE72600020096
:10025000704700002DE9F04782B04AF22010C0F24A
:10026000070001900198411E00280191FAD145F242
:100270001445C4F2000555F8140C40F4807045F89C
:10028000140C00BF2868C007FCD0782045F8040C87
:1002900028688007FCD52868686800BF28680006C1
:1002A000FCD5002045F8040C28684007FCD500BFA9
:1002B00028680006FCD5AE2045F8040C28684007E5
:1002C000FCD555F8140C40F4007045F8140C55F8A2
:1002D000140C40F4807045F8140C00BF2868C00767
:1002E000FCD0782045F8040C28688007FCD52868E5
:1002F000686800BF28680006FCD5002045F8040C9B
:1003000028684007FCD500BF28680006FCD5D5202A
:1003100045F8040C28684007FCD555F8140C40F447
:10032000007045F8140C55F8140C40F4807045F832
:10033000140C00BF2868C007FCD0782045F8040CD6
:1003400028688007FCD52868686800BF2868000610
:10035000FCD5002045F8040C28684007FCD500BFF8
:1003600028680006FCD5802045F8040C2868400762
:10037000FCD555F8140C40F4007045F8140C55F8F1
:10038000140C40F4807045F8140C00BF2868C007B6
:10039000FCD0782045F8040C28688007FCD5286834
:1003A000686800BF28680006FCD5002045F8040CEA
:1003B00028684007FCD500BF28680006FCD5A820A7
:1003C00045F8040C28684007FCD555F8140C40F497
:1003D000007045F8140C55F8140C40F4807045F882
:1003E000140C00BF2868C007FCD0782045F8040C26
:1003F00028688007FCD52868686800BF2868000660
:10040000FCD5002045F8040C28684007FCD500BF47
:1004100028680006FCD53F2045F8040C28684007F2
:10042000FCD555F8140C40F4007045F8140C55F840
:10043000140C40F4807045F8140C00BF2868C00705
:10044000FCD0782045F8040C28688007FCD5286883
:10045000686800BF28680006FCD5002045F8040C39
:1004600028684007FCD500BF28680006FCD5D320CB
:1004700045F8040C28684007FCD555F8140C40F4E6
:10048000007045F8140C55F8140C40F4807045F8D1
:10049000140C00BF2868C007FCD0782045F8040C75
:1004A00028688007FCD52868686800BF28680006AF
:1004B000FCD5002045F8040C28684007FCD500BF97
:1004C00028680006FCD5002045F8040C2868400781
:1004D000FCD555F8140C40F4007045F8140C55F890
:1004E000140C40F4807045F8140C00BF2868C00755
:1004F000FCD0782045F8040C28688007FCD52868D3
:10050000686800BF28680006FCD5002045F8040C88
:1005100028684007FCD500BF28680006FCD54020AD
:1005200045F8040C28684007FCD555F8140C40F435
:10053000007045F8140C55F8140C40F4807045F820
:10054000140C00BF2868C007FCD0782045F8040CC4
:1005500028688007FCD52868686800BF28680006FE
:10056000FCD5002045F8040C28684007FCD500BFE6
:1005700028680006FCD58D2045F8040C2868400743
:10058000FCD555F8140C40F4007045F8140C55F8DF
:10059000140C40F4807045F8140C00BF2868C007A4
:1005A000FCD0782045F8040C28688007FCD5286822
:1005B000686800BF28680006FCD5002045F8040CD8
:1005C00028684007FCD500BF28680006FCD5142029
:1005D00045F8040C28684007FCD555F8140C40F485
:1005E000007045F8140C55F8140C40F4807045F870
:1005F000140C00BF2868C007FCD0782045F8040C14
:1006000028688007FCD52868686800BF286800064D
:10061000FCD5002045F8040C28684007FCD500BF35
:1006200028680006FCD5202045F8040C28684007FF
:10063000FCD555F8140C40F4007045F8140C55F82E
:10064000140C40F4807045F8140C00BF2868C007F3
:10065000FCD0782045F8040C28688007FCD5286871
:10066000686800BF28680006FCD5002045F8040C27
:1006700028684007FCD500BF28680006FCD500208C
:1006800045F8040C28684007FCD555F8140C40F4D4
:10069000007045F8140C55F8140C40F4807045F8BF
:1006A000140C00BF2868C007FCD0782045F8040C63
:1006B00028688007FCD52868686800BF286800069D
:1006C000FCD5002045F8040C28684007FCD500BF85
:1006D00028680006FCD5A12045F8040C28684007CE
:1006E000FCD555F8140C40F4007045F8140C55F87E
:1006F000140C40F4807045F8140C00BF2868C00743
:10070000FCD0782045F8040C28688007FCD52868C0
:10071000686800BF28680006FCD5002045F8040C76
:1007200028684007FCD500BF28680006FCD5C82013
:1007300045F8040C28684007FCD555F8140C40F423
:10074000007045F8140C55F8140C40F4807045F80E
:10075000140C00BF2868C007FCD0782045F8040CB2
:1007600028688007FCD52868686800BF28680006EC
:10077000FCD5002045F8040C28684007FCD500BFD4
:1007800028680006FCD5DA2045F8040C28684007E4
:10079000FCD555F8140C40F4007045F8140C55F8CD
:1007A000140C40F4807045F8140C00BF2868C00792
:1007B000FCD0782045F8040C28688007FCD5286810
:1007C000686800BF28680006FCD5002045F8040CC6
:1007D00028684007FCD500BF28680006FCD5122019
:1007E00045F8040C28684007FCD555F8140C40F473
:1007F000007045F8140C55F8140C40F4807045F85E
:10080000140C00BF2868C007FCD0782045F8040C01
:1008100028688007FCD52868686800BF286800063B
:10082000FCD5002045F8040C28684007FCD500BF23
:1008300028680006FCD5812045F8040C286840078C
:10084000FCD555F8140C40F4007045F8140C55F81C
:10085000140C40F4807045F8140C00BF2868C007E1
:10086000FCD0782045F8040C28688007FCD528685F
:10087000686800BF28680006FCD5002045F8040C15
:1008800028684007FCD500BF28680006FCD5CF20AB
:1008900045F8040C28684007FCD555F8140C40F4C2
:1008A000007045F8140C55F8140C40F4807045F8AD
:1008B000140C00BF2868C007FCD0782045F8040C51
:1008C00028688007FCD52868686800BF286800068B
:1008D000FCD5002045F8040C28684007FCD500BF73
:1008E00028680006FCD5D92045F8040C2868400784
:1008F000FCD555F8140C40F4007045F8140C55F86C
:10090000140C40F4807045F8140C00BF2868C00730
:10091000FCD0782045F8040C28688007FCD52868AE
:10092000686800BF28680006FCD5002045F8040C64
:1009300028684007FCD500BF28680006FCD5F120D8
:1009400045F8040C28684007FCD555F8140C40F411
:10095000007045F8140C55F8140C40F4807045F8FC
:10096000140C00BF2868C007FCD0782045F8040CA0
:1009700028688007FCD52868686800BF28680006DA
:10098000FCD5002045F8040C28684007FCD500BFC2
:1009900028680006FCD5DB2045F8040C28684007D1
:1009A000FCD555F8140C40F4007045F8140C55F8BB
:1009B000140C40F4807045F8140C00BF2868C00780
:1009C000FCD0782045F8040C28688007FCD52868FE
:1009D000686800BF28680006FCD5002045F8040CB4
:1009E00028684007FCD500BF28680006FCD54020D9
:1009F00045F8040C28684007FCD555F8140C40F461
:100A0000007045F8140C55F8140C40F4807045F84B
:100A1000140C00BF2868C007FCD0782045F8040CEF
:100A200028688007FCD52868686800BF2868000629
:100A3000FCD5002045F8040C28684007FCD500BF11
:100A400028680006FCD5A42045F8040C2868400757
:100A5000FCD555F8140C40F4007045F8140C55F80A
:100A6000140C40F4807045F8140C00BF2868C007CF
:100A7000FCD0782045F8040C28688007FCD528684D
:100A8000686800BF28680006FCD5002045F8040C03
:100A900028684007FCD500BF28680006FCD5A620C2
:100AA00045F8040C28684007FCD555F8140C40F4B0
:100AB000007045F8140C55F8140C40F4807045F89B
:100AC000140C00BF2868C007FCD0782045F8040C3F
:100AD00028688007FCD52868686800BF2868000679
:100AE000FCD5002045F8040C28684007FCD500BF61
:100AF00028680006FCD5AF2045F8040C286840079C
:100B0000FCD555F8140C4FF0000A40F4007078271B
:100B100040244FF0000945F8140C00BF5FFA89F833
:100B200000204146002600F039F800BF55F8140CAB
:100B300040F4807045F8140C2868C007FCD045F8D4
:100B4000047C00BF28688007FCD52868686800BF5F
:100B500028680006FCD545F8044C00BF286840070B
:100B6000FCD500BF28680006FCD545F804AC00BFE2
:100B700028684007FCD555F8140C711C4EB240F49F
:100B80000070B6F1FF3F45F8140CCFDCB8F1070F49
:100B900009F10109C2D302B0BDE8F08745F2144261
:100BA000C4F2000252F8143C43F4807342F8143C3F
:100BB0001368DB07FCD0782342F8043C13689B07DA
:100BC000FCD51368536800BF13681B06FCD50023CF
:100BD00042F8043C13685B07FCD500BF13681B0692
:100BE000FCD55039C9B242F8041C00BF116849074E
:100BF000FCD552F8141C41F4007142F8141C52F850
:100C0000143C010943F4807342F8143C1368DB0779
:100C1000FCD0782342F8043C13689B07FCD513688A
:100C2000536800BF13681B06FCD5002342F8043C40
:100C300013685B07FCD500BF13681B06FCD5103199
:100C400042F8041C11684907FCD552F8141C41F401
:100C5000007142F8141C52F8141C41F4807142F8DF
:100C6000141C00BF1168C907FCD0782142F8041C8D
:100C700011688907FCD51168516800BF1168090621
:100C8000FCD5002142F8041C11684907FCD500BFBF
:100C900011680906FCD500F00F0042F8040C00BFF3
:100CA00010684007FCD552F8140C40F4007042F86C
:100CB000140C704782B041F20400C4F2020050F8F4
:100CC000041C002241F0010140F8041C0168CFF629
:100CD000FF021140016050F8041C4FF6FF72CFF67E
:100CE000F662114040F8041C50F8041C21F48021E5
:100CF00040F8041C016821F4FE0101604FF41F015B
:100D0000416000210191009150F8041C41F48031B0
:100D100040F8041C50F8041C01F4003100910199C2
:100D200001310191009919B90199B1F5A06FF1D183
:100D300050F8041CC1F3404100910099012936D1BB
:100D400042F20001C4F202010A6842F010020A6095
:100D50000A6822F007020A600A6842F002020A608A
:100D60000168016001680160016841F4806101600F
:100D7000016821F47C110160016841F4E81101600F
:100D800050F8041C41F0807140F8041C50F8041C19
:100D90008901FBD5016821F003010160016841F080
:100DA00002010160016801F00C010829FAD14EF638
:100DB0000850CEF200004FF00061016002B07047B1
:100DC00086B040F20010C0F20230049040F20140C0
:100DD000C0F20050039040F20670C0F60810029076
:100DE00041F21800C4F20200016841F2040441F02B
:100DF0001001C4F201040160216845F2144521F498
:100E0000700121602168C4F2000541F440112160A5
:100E1000016842F2084641F0090101604168C4F2EC
:100E2000010641F40011416040F60041C4F20101A5
:100E30000A6849F2E03822F07F420A600A68C0F28C
:100E4000040842F05D420A6055F8142C42F4004256
:100E500045F8142C55F8142C22F4004245F8142CB3
:100E600055F8102C22F03F0245F8102C55F8102CA4
:100E700042F0240245F8102CB422AA602522EA6030
:100E800055F8142C42F0010245F8142C50F8142C9B
:100E900022F4404240F8142C50F8142C42F4004242
:100EA00040F8142C026842F004020260026842F426
:100EB000007202604FF20040CFF6FF700A5822F035
:100EC0000F020A50F06840F00700F0600020F06266
:100ED000306840F460203060306840F4801030604A
:100EE000306840F001003060FFF7B4F941F2C41AF5
:100EF00000234FF0FF0C4FF400504FF0780B4FF0F1
:100F00004009C0F6000A00BF316841F48001316039
:100F100056F8081C8907FBD5776C0222B7F5FA6FE3
:100F200040F2455138BF01228F425FFA8CF198BFE1
:100F30001A468A4200F03481002000210192A7F273
:100F400046580024FFF72AFE002100BF55F8140C74
:100F500040F4807045F8140C2868C007FCD045F8B0
:100F600004BC00BF28688007FCD52868686800BFFB
:100F700028680006FCD545F8049C00BF2868400797
:100F8000FCD500BF28680006FCD545F8041C00BF4E
:100F900028684007FCD555F8140C272C40F4007045
:100FA00004F1010445F8140CD0D340F245508742B7
:100FB0004CD940F28A20804580F09B8049F2E0388D
:100FC0000027C0F2040800BF03A8C65DC7EBC70036
:100FD000C0B200210024FFF7E1FD00BF06EB460090
:100FE0000AEB4000005D55F8141C41F4807145F88F
:100FF000141C00BF2968C907FCD045F804BC00BF19
:1010000029688907FCD52968696800BF296809062D
:10101000FCD545F8049C00BF29684907FCD500BFF2
:1010200029680906FCD545F8040C00BF286840076C
:10103000FCD555F8140C013440F40070062C45F82A
:10104000140CCBD10137042FBED146E049F2E03871
:101050000027C0F2040800BF04A8C65DC7EBC700A4
:10106000C0B200210024FFF799FD00BF06EB460047
:101070000AEB4000005D55F8141C41F4807145F8FE
:10108000141C00BF2968C907FCD045F804BC00BF88
:1010900029688907FCD52968696800BF296809069D
:1010A000FCD545F8049C00BF29684907FCD500BF62
:1010B00029680906FCD545F8040C00BF28684007DC
:1010C000FCD555F8140C013440F40070062C45F89A
:1010D000140CCBD10137042FBED1DDF804C041F28E
:1010E000040442F20846C4F20104C4F201060023DB
:1010F00054E04FF0000802AFC8EBC80017F80860D2
:10110000C0B200210024FFF749FD00BF06EB4600F6
:101110000AEB4000005D55F8141C41F4807145F85D
:10112000141C00BF2968C907FCD045F804BC00BFE7
:1011300029688907FCD52968696800BF29680906FC
:10114000FCD545F8049C00BF29684907FCD500BFC1
:1011500029680906FCD545F8040C00BF286840073B
:10116000FCD555F8140C013440F40070062C45F8F9
:10117000140CCBD108F10108B8F1040FBCD1DDF893
:1011800004C041F2040442F2084649F2E038C4F2D5
:101190000104C4F201060023C0F204084FF4005019
:1011A0002061CDF8148000BF05994A1E00290592E0
:1011B000FAD1E060CDF8148005994A1E0029059205
:1011C000FAD1A1E600417F4100007F4141413E004C
:1011D0007F40404040007F49494941007F0919292B
:1011E00046007F09090906003F4038403F007C1255
:1011F00011127C004649494931007F0808087F00E8
:1012000010120008000000206006000054010008D1
:040000050800019955
:00000001FF
